{
    "contractName": "FlightSuretyApp",
    "abi": [
        {
            "constant": false,
            "inputs": [],
            "name": "registerOracle",
            "outputs": [],
            "payable": true,
            "stateMutability": "payable",
            "type": "function"
        },
        {
            "constant": false,
            "inputs": [
                {
                    "name": "airline",
                    "type": "address"
                },
                {
                    "name": "flight",
                    "type": "string"
                },
                {
                    "name": "timestamp",
                    "type": "uint256"
                }
            ],
            "name": "registerFlight",
            "outputs": [],
            "payable": false,
            "stateMutability": "nonpayable",
            "type": "function"
        },
        {
            "constant": true,
            "inputs": [],
            "name": "getMyIndexes",
            "outputs": [
                {
                    "name": "",
                    "type": "uint8[3]"
                }
            ],
            "payable": false,
            "stateMutability": "view",
            "type": "function"
        },
        {
            "constant": true,
            "inputs": [],
            "name": "REGISTRATION_FEE",
            "outputs": [
                {
                    "name": "",
                    "type": "uint256"
                }
            ],
            "payable": false,
            "stateMutability": "view",
            "type": "function"
        },
        {
            "constant": false,
            "inputs": [
                {
                    "name": "index",
                    "type": "uint8"
                },
                {
                    "name": "airline",
                    "type": "address"
                },
                {
                    "name": "flight",
                    "type": "string"
                },
                {
                    "name": "timestamp",
                    "type": "uint256"
                },
                {
                    "name": "statusCode",
                    "type": "uint8"
                }
            ],
            "name": "submitOracleResponse",
            "outputs": [],
            "payable": false,
            "stateMutability": "nonpayable",
            "type": "function"
        },
        {
            "constant": true,
            "inputs": [],
            "name": "isOperational",
            "outputs": [
                {
                    "name": "",
                    "type": "bool"
                }
            ],
            "payable": false,
            "stateMutability": "view",
            "type": "function"
        },
        {
            "constant": false,
            "inputs": [
                {
                    "name": "airline",
                    "type": "address"
                },
                {
                    "name": "name",
                    "type": "string"
                }
            ],
            "name": "registerAirline",
            "outputs": [],
            "payable": false,
            "stateMutability": "nonpayable",
            "type": "function"
        },
        {
            "constant": false,
            "inputs": [
                {
                    "name": "airline",
                    "type": "address"
                },
                {
                    "name": "flight",
                    "type": "string"
                },
                {
                    "name": "timestamp",
                    "type": "uint256"
                }
            ],
            "name": "fetchFlightStatus",
            "outputs": [],
            "payable": false,
            "stateMutability": "nonpayable",
            "type": "function"
        },
        {
            "inputs": [],
            "payable": false,
            "stateMutability": "nonpayable",
            "type": "constructor"
        },
        {
            "anonymous": false,
            "inputs": [
                {
                    "indexed": false,
                    "name": "airline",
                    "type": "address"
                },
                {
                    "indexed": false,
                    "name": "flight",
                    "type": "string"
                },
                {
                    "indexed": false,
                    "name": "timestamp",
                    "type": "uint256"
                },
                {
                    "indexed": false,
                    "name": "status",
                    "type": "uint8"
                }
            ],
            "name": "FlightStatusInfo",
            "type": "event"
        },
        {
            "anonymous": false,
            "inputs": [
                {
                    "indexed": false,
                    "name": "airline",
                    "type": "address"
                },
                {
                    "indexed": false,
                    "name": "flight",
                    "type": "string"
                },
                {
                    "indexed": false,
                    "name": "timestamp",
                    "type": "uint256"
                },
                {
                    "indexed": false,
                    "name": "status",
                    "type": "uint8"
                }
            ],
            "name": "OracleReport",
            "type": "event"
        },
        {
            "anonymous": false,
            "inputs": [
                {
                    "indexed": false,
                    "name": "index",
                    "type": "uint8"
                },
                {
                    "indexed": false,
                    "name": "airline",
                    "type": "address"
                },
                {
                    "indexed": false,
                    "name": "flight",
                    "type": "string"
                },
                {
                    "indexed": false,
                    "name": "timestamp",
                    "type": "uint256"
                }
            ],
            "name": "OracleRequest",
            "type": "event"
        }
    ],
    "bytecode": "60806040526004805460ff1916905534801561001a57600080fd5b5060018054600160a060020a03191633179055610fff8061003c6000396000f30060806040526004361061008d5763ffffffff7c0100000000000000000000000000000000000000000000000000000000600035041663339d259081146100925780633cc0be9c1461009c5780635f1cc0e6146100cc57806364b4f75114610119578063c10f270014610140578063cd905dff14610182578063ee38a749146101ab578063f83f11c0146101d8575b600080fd5b61009a610208565b005b3480156100a857600080fd5b5061009a60048035600160a060020a031690602480359081019101356044356102c6565b3480156100d857600080fd5b506100e161039f565b6040518082606080838360005b838110156101065781810151838201526020016100ee565b5050505090500191505060405180910390f35b34801561012557600080fd5b5061012e610471565b60408051918252519081900360200190f35b34801561014c57600080fd5b5061009a60ff60048035821691600160a060020a036024803591909116926044359182019291013590606435906084351661047d565b34801561018e57600080fd5b5061019761089e565b604080519115158252519081900360200190f35b3480156101b757600080fd5b5061009a60048035600160a060020a0316906024803590810191013561093c565b3480156101e457600080fd5b5061009a60048035600160a060020a031690602480359081019101356044356109d9565b610210610f03565b67016345785d8a0000341015610270576040805160e560020a62461bcd02815260206004820152601c60248201527f526567697374726174696f6e2066656520697320726571756972656400000000604482015290519081900360640190fd5b61027933610bc6565b6040805180820182526001808252602080830185815233600090815260059092529390208251815460ff1916901515178155925193945090926102c0918301906003610f22565b50505050565b60006103048585858080601f01602080910402602001604051908101604052809392919081815260200183838082843750899450610c6c9350505050565b60408051608081018252600180825260006020808401828152848601988952600160a060020a039b8c16606086019081529683526002918290529490912092518354945160ff166101000261ff001991151560ff1990961695909517169390931782559451948101949094559051920180549290951673ffffffffffffffffffffffffffffffffffffffff1990921691909117909355505050565b6103a7610f03565b3360009081526005602052604090205460ff161515610410576040805160e560020a62461bcd02815260206004820152601b60248201527f4e6f74207265676973746572656420617320616e206f7261636c650000000000604482015290519081900360640190fd5b3360009081526005602052604080822081516060810192839052926001909101916003918390855b825461010083900a900460ff16815260206001928301818104948501949093039092029101808411610438579050505050505090505b90565b67016345785d8a000081565b3360009081526005602052604081206001015460ff888116911614806104bf57503360009081526005602052604090206001015460ff88811661010090920416145b806104e757503360009081526005602052604090206001015460ff8881166201000090920416145b1515610563576040805160e560020a62461bcd02815260206004820152602360248201527f496e64657820646f6573206e6f74206d61746368206f7261636c65207265717560448201527f6573740000000000000000000000000000000000000000000000000000000000606482015290519081900360840190fd5b8686868686604051602001808660ff1660ff167f010000000000000000000000000000000000000000000000000000000000000002815260010185600160a060020a0316600160a060020a03166c010000000000000000000000000281526014018484808284378201915050828152602001955050505050506040516020818303038152906040526040518082805190602001908083835b6020831061061a5780518252601f1990920191602091820191016105fb565b51815160209384036101000a6000190180199092169116179052604080519290940182900390912060008181526006909252929020549194505074010000000000000000000000000000000000000000900460ff16151591506106ef9050576040805160e560020a62461bcd02815260206004820152602f60248201527f466c69676874206f722074696d657374616d7020646f206e6f74206d6174636860448201527f206f7261636c6520726571756573740000000000000000000000000000000000606482015290519081900360840190fd5b600081815260066020908152604080832060ff8616808552600191820184528285208054928301815585529383902001805473ffffffffffffffffffffffffffffffffffffffff1916331790558051600160a060020a038a168152908101869052606081019290925260809082018181529082018690527f43c853095c2752648493c88b4baac4d580d2594ffb00c6f1d4242d844514f783918891889188918891889160a0820186868082843760405192018290039850909650505050505050a1600081815260066020908152604080832060ff86168452600101909152902054600311610895577fe23f5229de535c091e3b7bec2665f5d698192d3b31393066e8987b7a05076b6c86868686866040518086600160a060020a0316600160a060020a03168152602001806020018481526020018360ff1660ff168152602001828103825286868281815260200192508082843760405192018290039850909650505050505050a16108958686868080601f0160208091040260200160405190810160405280939291908181526020018383808284378201915050505050508585610d5f565b50505050505050565b60008060009054906101000a9004600160a060020a0316600160a060020a031663cd905dff6040518163ffffffff167c0100000000000000000000000000000000000000000000000000000000028152600401602060405180830381600087803b15801561090b57600080fd5b505af115801561091f573d6000803e3d6000fd5b505050506040513d602081101561093557600080fd5b5051905090565b600054604080517fee38a749000000000000000000000000000000000000000000000000000000008152600160a060020a0386811660048301908152602483019384526044830186905293169263ee38a7499287928792879290916064018484808284378201915050945050505050600060405180830381600087803b1580156109c557600080fd5b505af1158015610895573d6000803e3d6000fd5b6000806109e533610e15565b91508186868686604051602001808660ff1660ff167f010000000000000000000000000000000000000000000000000000000000000002815260010185600160a060020a0316600160a060020a03166c010000000000000000000000000281526014018484808284378201915050828152602001955050505050506040516020818303038152906040526040518082805190602001908083835b60208310610a9e5780518252601f199092019160209182019101610a7f565b51815160209384036101000a6000190180199092169116179052604080519290940182900382208285018552338352600183830190815260008281526006845286902093518454915173ffffffffffffffffffffffffffffffffffffffff19909216600160a060020a039182161774ff00000000000000000000000000000000000000001916740100000000000000000000000000000000000000009215159290920291909117909355845160ff8a168152928d16918301919091526060820189905260809382018481529382018a905295507f3ed01f2c3fc24c6b329d931e35b03e390d23497d22b3f90e15b600343e93df1194508693508a928a92508991899160a0820185858082843760405192018290039850909650505050505050a1505050505050565b610bce610f03565b610bd6610f03565b610bdf83610e15565b60ff1680825260208201525b8051602082015160ff90811691161415610c1557610c0883610e15565b60ff166020820152610beb565b602081015160ff1660408201525b8051604082015160ff90811691161480610c4b57506020810151604082015160ff9081169116145b15610c6657610c5983610e15565b60ff166040820152610c23565b92915050565b60008383836040516020018084600160a060020a0316600160a060020a03166c0100000000000000000000000002815260140183805190602001908083835b60208310610cca5780518252601f199092019160209182019101610cab565b51815160209384036101000a60001901801990921691161790529201938452506040805180850381529382019081905283519395509350839290850191508083835b60208310610d2b5780518252601f199092019160209182019101610d0c565b5181516020939093036101000a60001901801990911692169190911790526040519201829003909120979650505050505050565b6000610d6c858585610c6c565b905060ff821660141480610d83575060ff82166028145b15610e0e5760008054828252600360205260408083205481517ff60e742f000000000000000000000000000000000000000000000000000000008152600160a060020a039182166004820152915192169263f60e742f9260248084019382900301818387803b158015610df557600080fd5b505af1158015610e09573d6000803e3d6000fd5b505050505b5050505050565b6004805460ff198116600160ff9283169081019092161790915560408051439290920340602080840191909152600160a060020a0384166c010000000000000000000000000283830152815180840360340181526054909301918290528251600093600a938593859382918401908083835b60208310610ea65780518252601f199092019160209182019101610e87565b5181516020939093036101000a6000190180199091169216919091179052604051920182900390912092505050811515610edc57fe5b600454919006915060fa60ff9091161115610efc576004805460ff191690555b9392505050565b6060604051908101604052806003906020820280388339509192915050565b600183019183908215610fa55791602002820160005b83821115610f7657835183826101000a81548160ff021916908360ff1602179055509260200192600101602081600001049283019260010302610f38565b8015610fa35782816101000a81549060ff0219169055600101602081600001049283019260010302610f76565b505b50610fb1929150610fb5565b5090565b61046e91905b80821115610fb157805460ff19168155600101610fbb5600a165627a7a72305820b50625764db350a862b0a4bb893dc2b95043fb331a64c1f74d8de2e08aa0a7ea0029",
    "sourcePath": "/Users/buuthongtran/Downloads/FlightSurety/contracts/FlightSuretyApp.sol",
    "compiler": {
        "name": "solc",
        "version": "0.4.25+commit.59dbf8f1"
    },
    "functionHashes": {
        "REGISTRATION_FEE()": "64b4f751",
        "fetchFlightStatus(address,string,uint256)": "f83f11c0",
        "getMyIndexes()": "5f1cc0e6",
        "isOperational()": "cd905dff",
        "registerAirline(address,string)": "ee38a749",
        "registerFlight(address,string,uint256)": "3cc0be9c",
        "registerOracle()": "339d2590",
        "submitOracleResponse(uint8,address,string,uint256,uint8)": "c10f2700"
    },
    "gasEstimates": {
        "creation": {
            "codeDepositCost": "819000",
            "executionCost": "41361",
            "totalCost": "860361"
        },
        "external": {
            "REGISTRATION_FEE()": "250",
            "fetchFlightStatus(address,string,uint256)": "infinite",
            "getMyIndexes()": "infinite",
            "isOperational()": "infinite",
            "registerAirline(address,string)": "infinite",
            "registerFlight(address,string,uint256)": "infinite",
            "registerOracle()": "infinite",
            "submitOracleResponse(uint8,address,string,uint256,uint8)": "infinite"
        },
        "internal": {
            "generateIndexes(address)": "infinite",
            "getFlightKey(address,string memory,uint256)": "infinite",
            "getRandomIndex(address)": "infinite",
            "processFlightStatus(address,string memory,uint256,uint8)": "infinite"
        }
    }
}