{
    "contractName": "FlightSuretyData",
    "abi": [
        {
            "constant": false,
            "inputs": [
                {
                    "name": "mode",
                    "type": "bool"
                }
            ],
            "name": "setOperatingStatus",
            "outputs": [],
            "payable": false,
            "stateMutability": "nonpayable",
            "type": "function"
        },
        {
            "constant": true,
            "inputs": [
                {
                    "name": "airline",
                    "type": "address"
                }
            ],
            "name": "getAirlineFundingStatus",
            "outputs": [
                {
                    "name": "",
                    "type": "bool"
                }
            ],
            "payable": false,
            "stateMutability": "view",
            "type": "function"
        },
        {
            "constant": false,
            "inputs": [],
            "name": "pay",
            "outputs": [],
            "payable": false,
            "stateMutability": "nonpayable",
            "type": "function"
        },
        {
            "constant": true,
            "inputs": [
                {
                    "name": "airline",
                    "type": "address"
                }
            ],
            "name": "getAirlineRegistrationStatus",
            "outputs": [
                {
                    "name": "",
                    "type": "bool"
                }
            ],
            "payable": false,
            "stateMutability": "view",
            "type": "function"
        },
        {
            "constant": false,
            "inputs": [
                {
                    "name": "airline",
                    "type": "address"
                }
            ],
            "name": "fund",
            "outputs": [],
            "payable": true,
            "stateMutability": "payable",
            "type": "function"
        },
        {
            "constant": false,
            "inputs": [
                {
                    "name": "flight",
                    "type": "address"
                }
            ],
            "name": "creditInsurees",
            "outputs": [],
            "payable": false,
            "stateMutability": "nonpayable",
            "type": "function"
        },
        {
            "constant": true,
            "inputs": [
                {
                    "name": "airline",
                    "type": "address"
                },
                {
                    "name": "airlineToBeVoted",
                    "type": "address"
                }
            ],
            "name": "getAirlineVotingStatus",
            "outputs": [
                {
                    "name": "",
                    "type": "bool"
                }
            ],
            "payable": false,
            "stateMutability": "view",
            "type": "function"
        },
        {
            "constant": false,
            "inputs": [],
            "name": "buy",
            "outputs": [],
            "payable": true,
            "stateMutability": "payable",
            "type": "function"
        },
        {
            "constant": true,
            "inputs": [],
            "name": "isOperational",
            "outputs": [
                {
                    "name": "",
                    "type": "bool"
                }
            ],
            "payable": false,
            "stateMutability": "view",
            "type": "function"
        },
        {
            "constant": false,
            "inputs": [
                {
                    "name": "airline",
                    "type": "address"
                },
                {
                    "name": "name",
                    "type": "string"
                }
            ],
            "name": "registerAirline",
            "outputs": [],
            "payable": false,
            "stateMutability": "nonpayable",
            "type": "function"
        },
        {
            "inputs": [],
            "payable": false,
            "stateMutability": "nonpayable",
            "type": "constructor"
        },
        {
            "payable": true,
            "stateMutability": "payable",
            "type": "fallback"
        }
    ],
    "bytecode": "60806040526000805460a060020a60ff0219167401000000000000000000000000000000000000000017905534801561003757600080fd5b5060008054600160a060020a0319163390811782556040805160a0810182526009606082019081527f416c7068612041697200000000000000000000000000000000000000000000006080830152815260016020808301829052828401869052938552835292208251805191926100b3928492909101906100ec565b5060208201516001909101805460409093015115156101000261ff001992151560ff199094169390931791909116919091179055610187565b828054600181600116156101000203166002900490600052602060002090601f016020900481019282601f1061012d57805160ff191683800117855561015a565b8280016001018555821561015a579182015b8281111561015a57825182559160200191906001019061013f565b5061016692915061016a565b5090565b61018491905b808211156101665760008155600101610170565b90565b6107fe806101966000396000f3006080604052600436106100a35763ffffffff7c0100000000000000000000000000000000000000000000000000000000600035041663110466ed81146100a55780631463ba12146100bf5780631b9265b8146100f45780631eeb885814610109578063230244081461012a5780634a830a921461013e57806370c9411e1461015f578063a6f2ae3a14610186578063cd905dff1461018e578063ee38a749146101a3575b005b3480156100b157600080fd5b506100a360043515156101d0565b3480156100cb57600080fd5b506100e0600160a060020a0360043516610261565b604080519115158252519081900360200190f35b34801561010057600080fd5b506100a3610288565b34801561011557600080fd5b506100e0600160a060020a0360043516610381565b6100a3600160a060020a03600435166103a3565b34801561014a57600080fd5b506100a3600160a060020a03600435166103cd565b34801561016b57600080fd5b506100e0600160a060020a036004358116906024351661048c565b6100a36104c0565b34801561019a57600080fd5b506100e0610599565b3480156101af57600080fd5b506100a360048035600160a060020a031690602480359081019101356105aa565b600054600160a060020a03163314610232576040805160e560020a62461bcd02815260206004820152601c60248201527f43616c6c6572206973206e6f7420636f6e7472616374206f776e657200000000604482015290519081900360640190fd5b6000805491151560a060020a0274ff000000000000000000000000000000000000000019909216919091179055565b600160a060020a031660009081526001602081905260409091200154610100900460ff1690565b6000805460a060020a900460ff1615156102ee576040805160e560020a62461bcd028152602060048201526025602482015260008051602061079383398151915260448201526000805160206107b3833981519152606482015290519081900360840190fd5b3360008181526003602090815260408083205490519092818301929091908185875af192505050905080151561036e576040805160e560020a62461bcd02815260206004820152600f60248201527f5472616e73666572206661696c65640000000000000000000000000000000000604482015290519081900360640190fd5b5033600090815260036020526040812055565b600160a060020a03166000908152600160208190526040909120015460ff1690565b600160a060020a0316600090815260016020819052604090912001805461ff001916610100179055565b60005460a060020a900460ff161515610432576040805160e560020a62461bcd028152602060048201526025602482015260008051602061079383398151915260448201526000805160206107b3833981519152606482015290519081900360840190fd5b600160a060020a038116600090815260036020819052604090912054610470916002916104649163ffffffff6106bc16565b9063ffffffff6106e516565b600160a060020a03909116600090815260036020526040902055565b600160a060020a038083166000908152600160209081526040808320938516835260029093019052205460ff165b92915050565b60005460a060020a900460ff161515610525576040805160e560020a62461bcd028152602060048201526025602482015260008051602061079383398151915260448201526000805160206107b3833981519152606482015290519081900360840190fd5b670de0b6b3a7640000341115610585576040805160e560020a62461bcd02815260206004820152601960248201527f63616e206f6e6c7920706179207570746f203120657468657200000000000000604482015290519081900360640190fd5b336000908152600360205260409020349055565b60005460a060020a900460ff165b90565b60005460a060020a900460ff16151561060f576040805160e560020a62461bcd028152602060048201526025602482015260008051602061079383398151915260448201526000805160206107b3833981519152606482015290519081900360840190fd5b6040805160806020601f85018190040282018101909252606081018381529091829190859085908190850183828082843750505092845250506001602080840182905260006040948501819052600160a060020a0389168152918152929020835180519193610683935084929101906106fa565b5060208201516001909101805460409093015115156101000261ff001992151560ff199094169390931791909116919091179055505050565b60008215156106cd575060006104ba565b508181028183828115156106dd57fe5b04146104ba57fe5b600081838115156106f257fe5b049392505050565b828054600181600116156101000203166002900490600052602060002090601f016020900481019282601f1061073b57805160ff1916838001178555610768565b82800160010185558215610768579182015b8281111561076857825182559160200191906001019061074d565b50610774929150610778565b5090565b6105a791905b80821115610774576000815560010161077e5600436f6e74726163742069732063757272656e746c79206e6f74206f7065726174696f6e616c000000000000000000000000000000000000000000000000000000a165627a7a72305820a8fbedb2826c022f6acdd68515bcea5b05a0d6259d9fb27e9e9855b99a7fc1a40029",
    "sourcePath": "/Users/buuthongtran/Downloads/FlightSurety/contracts/FlightSuretyData.sol",
    "compiler": {
        "name": "solc",
        "version": "0.4.25+commit.59dbf8f1"
    },
    "functionHashes": {
        "buy()": "a6f2ae3a",
        "creditInsurees(address)": "4a830a92",
        "fund(address)": "23024408",
        "getAirlineFundingStatus(address)": "1463ba12",
        "getAirlineRegistrationStatus(address)": "1eeb8858",
        "getAirlineVotingStatus(address,address)": "70c9411e",
        "isOperational()": "cd905dff",
        "pay()": "1b9265b8",
        "registerAirline(address,string)": "ee38a749",
        "setOperatingStatus(bool)": "110466ed"
    },
    "gasEstimates": {
        "creation": {
            "codeDepositCost": "409200",
            "executionCost": "infinite",
            "totalCost": "infinite"
        },
        "external": {
            "": "280",
            "buy()": "infinite",
            "creditInsurees(address)": "infinite",
            "fund(address)": "20652",
            "getAirlineFundingStatus(address)": "663",
            "getAirlineRegistrationStatus(address)": "696",
            "getAirlineVotingStatus(address,address)": "863",
            "isOperational()": "647",
            "pay()": "infinite",
            "registerAirline(address,string)": "infinite",
            "setOperatingStatus(bool)": "20755"
        },
        "internal": {
            "getFlightKey(address,string memory,uint256)": "infinite"
        }
    }
}