{
    "contractName": "FlightSuretyData",
    "abi": [
        {
            "constant": false,
            "inputs": [
                {
                    "name": "mode",
                    "type": "bool"
                }
            ],
            "name": "setOperatingStatus",
            "outputs": [],
            "payable": false,
            "stateMutability": "nonpayable",
            "type": "function"
        },
        {
            "constant": false,
            "inputs": [],
            "name": "pay",
            "outputs": [],
            "payable": false,
            "stateMutability": "nonpayable",
            "type": "function"
        },
        {
            "constant": false,
            "inputs": [
                {
                    "name": "airline",
                    "type": "address"
                }
            ],
            "name": "fund",
            "outputs": [],
            "payable": true,
            "stateMutability": "payable",
            "type": "function"
        },
        {
            "constant": false,
            "inputs": [],
            "name": "buy",
            "outputs": [],
            "payable": true,
            "stateMutability": "payable",
            "type": "function"
        },
        {
            "constant": true,
            "inputs": [],
            "name": "isOperational",
            "outputs": [
                {
                    "name": "",
                    "type": "bool"
                }
            ],
            "payable": false,
            "stateMutability": "view",
            "type": "function"
        },
        {
            "constant": false,
            "inputs": [
                {
                    "name": "airline",
                    "type": "address"
                },
                {
                    "name": "name",
                    "type": "string"
                }
            ],
            "name": "registerAirline",
            "outputs": [],
            "payable": false,
            "stateMutability": "nonpayable",
            "type": "function"
        },
        {
            "constant": false,
            "inputs": [
                {
                    "name": "passenger",
                    "type": "address"
                }
            ],
            "name": "creditInsuree",
            "outputs": [],
            "payable": false,
            "stateMutability": "nonpayable",
            "type": "function"
        },
        {
            "inputs": [],
            "payable": false,
            "stateMutability": "nonpayable",
            "type": "constructor"
        },
        {
            "payable": true,
            "stateMutability": "payable",
            "type": "fallback"
        }
    ],
    "bytecode": "60806040526000805460a060020a60ff0219167401000000000000000000000000000000000000000017905534801561003757600080fd5b5060008054600160a060020a0319163390811782556040805160a0810182526009606082019081527f416c7068612041697200000000000000000000000000000000000000000000006080830152815260016020808301829052828401869052938552835292208251805191926100b3928492909101906100ec565b5060208201516001909101805460409093015115156101000261ff001992151560ff199094169390931791909116919091179055610187565b828054600181600116156101000203166002900490600052602060002090601f016020900481019282601f1061012d57805160ff191683800117855561015a565b8280016001018555821561015a579182015b8281111561015a57825182559160200191906001019061013f565b5061016692915061016a565b5090565b61018491905b808211156101665760008155600101610170565b90565b6104b7806101966000396000f3006080604052600436106100825763ffffffff7c0100000000000000000000000000000000000000000000000000000000600035041663110466ed81146100845780631b9265b81461009e57806323024408146100b3578063a6f2ae3a146100c7578063cd905dff146100cf578063ee38a749146100f8578063f60e742f14610125575b005b34801561009057600080fd5b506100826004351515610146565b3480156100aa57600080fd5b506100826101ff565b610082600160a060020a0360043516610249565b610082610273565b3480156100db57600080fd5b506100e4610287565b604080519115158252519081900360200190f35b34801561010457600080fd5b5061008260048035600160a060020a031690602480359081019101356102a9565b34801561013157600080fd5b50610082600160a060020a0360043516610356565b600054600160a060020a031633146101bf57604080517f08c379a000000000000000000000000000000000000000000000000000000000815260206004820152601c60248201527f43616c6c6572206973206e6f7420636f6e7472616374206f776e657200000000604482015290519081900360640190fd5b60008054911515740100000000000000000000000000000000000000000274ff000000000000000000000000000000000000000019909216919091179055565b3360008181526003602052604080822054905181156108fc0292818181858888f19350505050158015610236573d6000803e3d6000fd5b5033600090815260036020526040812055565b600160a060020a0316600090815260016020819052604090912001805461ff001916610100179055565b336000908152600360205260409020349055565b60005474010000000000000000000000000000000000000000900460ff165b90565b6040805160806020601f85018190040282018101909252606081018381529091829190859085908190850183828082843750505092845250506001602080840182905260006040948501819052600160a060020a038916815291815292902083518051919361031d935084929101906103f3565b5060208201516001909101805460409093015115156101000261ff001992151560ff199094169390931791909116919091179055505050565b600160a060020a0381166000908152600360205260409020546103939060649061038790605f63ffffffff6103af16565b9063ffffffff6103de16565b600160a060020a03909116600090815260036020526040902055565b60008215156103c0575060006103d8565b508181028183828115156103d057fe5b04146103d857fe5b92915050565b600081838115156103eb57fe5b049392505050565b828054600181600116156101000203166002900490600052602060002090601f016020900481019282601f1061043457805160ff1916838001178555610461565b82800160010185558215610461579182015b82811115610461578251825591602001919060010190610446565b5061046d929150610471565b5090565b6102a691905b8082111561046d57600081556001016104775600a165627a7a723058206c49452203ee39f679b4d7397a44b3ee35e770b92e85c1283ab6b2dff3537dcb0029",
    "sourcePath": "/Users/buuthongtran/Downloads/FlightSurety/contracts/FlightSuretyData.sol",
    "compiler": {
        "name": "solc",
        "version": "0.4.25+commit.59dbf8f1"
    },
    "functionHashes": {
        "buy()": "a6f2ae3a",
        "creditInsuree(address)": "f60e742f",
        "fund(address)": "23024408",
        "isOperational()": "cd905dff",
        "pay()": "1b9265b8",
        "registerAirline(address,string)": "ee38a749",
        "setOperatingStatus(bool)": "110466ed"
    },
    "gasEstimates": {
        "creation": {
            "codeDepositCost": "241400",
            "executionCost": "infinite",
            "totalCost": "infinite"
        },
        "external": {
            "": "214",
            "buy()": "20248",
            "creditInsuree(address)": "infinite",
            "fund(address)": "20608",
            "isOperational()": "496",
            "pay()": "infinite",
            "registerAirline(address,string)": "infinite",
            "setOperatingStatus(bool)": "20692"
        },
        "internal": {
            "getFlightKey(address,string memory,uint256)": "infinite"
        }
    }
}