{
    "contractName": "FlightSuretyData",
    "abi": [
        {
            "constant": false,
            "inputs": [
                {
                    "name": "mode",
                    "type": "bool"
                }
            ],
            "name": "setOperatingStatus",
            "outputs": [],
            "payable": false,
            "stateMutability": "nonpayable",
            "type": "function"
        },
        {
            "constant": true,
            "inputs": [],
            "name": "pay",
            "outputs": [],
            "payable": false,
            "stateMutability": "pure",
            "type": "function"
        },
        {
            "constant": true,
            "inputs": [],
            "name": "creditInsurees",
            "outputs": [],
            "payable": false,
            "stateMutability": "pure",
            "type": "function"
        },
        {
            "constant": false,
            "inputs": [],
            "name": "buy",
            "outputs": [],
            "payable": true,
            "stateMutability": "payable",
            "type": "function"
        },
        {
            "constant": false,
            "inputs": [],
            "name": "fund",
            "outputs": [],
            "payable": true,
            "stateMutability": "payable",
            "type": "function"
        },
        {
            "constant": true,
            "inputs": [
                {
                    "name": "airline",
                    "type": "address"
                }
            ],
            "name": "registerAirline",
            "outputs": [],
            "payable": false,
            "stateMutability": "pure",
            "type": "function"
        },
        {
            "constant": true,
            "inputs": [],
            "name": "isOperational",
            "outputs": [
                {
                    "name": "",
                    "type": "bool"
                }
            ],
            "payable": false,
            "stateMutability": "view",
            "type": "function"
        },
        {
            "inputs": [],
            "payable": false,
            "stateMutability": "nonpayable",
            "type": "constructor"
        },
        {
            "payable": true,
            "stateMutability": "payable",
            "type": "fallback"
        }
    ],
    "bytecode": "60806040526000805460a060020a60ff0219167401000000000000000000000000000000000000000017905534801561003757600080fd5b5060008054600160a060020a0319163317905561022a806100596000396000f3006080604052600436106100825763ffffffff7c0100000000000000000000000000000000000000000000000000000000600035041663110466ed811461008c5780631b9265b8146100a657806336cee484146100a6578063a6f2ae3a14610082578063b60d428814610082578063bdfd9877146100bb578063cd905dff146100e9575b61008a610112565b005b34801561009857600080fd5b5061008a6004351515610114565b3480156100b257600080fd5b5061008a610112565b3480156100c757600080fd5b5061008a73ffffffffffffffffffffffffffffffffffffffff600435166101da565b3480156100f557600080fd5b506100fe6101dd565b604080519115158252519081900360200190f35b565b60005473ffffffffffffffffffffffffffffffffffffffff16331461019a57604080517f08c379a000000000000000000000000000000000000000000000000000000000815260206004820152601c60248201527f43616c6c6572206973206e6f7420636f6e7472616374206f776e657200000000604482015290519081900360640190fd5b60008054911515740100000000000000000000000000000000000000000274ff000000000000000000000000000000000000000019909216919091179055565b50565b60005474010000000000000000000000000000000000000000900460ff16905600a165627a7a72305820e87f9acc4ddab815b9bd0308a422bc8b8c575d1f7426cd4bb8fa891c715184860029",
    "sourcePath": "/Users/buuthongtran/Downloads/FlightSurety/contracts/FlightSuretyData.sol",
    "compiler": {
        "name": "solc",
        "version": "0.4.25+commit.59dbf8f1"
    },
    "functionHashes": {
        "buy()": "a6f2ae3a",
        "creditInsurees()": "36cee484",
        "fund()": "b60d4288",
        "isOperational()": "cd905dff",
        "pay()": "1b9265b8",
        "registerAirline(address)": "bdfd9877",
        "setOperatingStatus(bool)": "110466ed"
    },
    "gasEstimates": {
        "creation": {
            "codeDepositCost": "110800",
            "executionCost": "40746",
            "totalCost": "151546"
        },
        "external": {
            "": "238",
            "buy()": "172",
            "creditInsurees()": "174",
            "fund()": "194",
            "isOperational()": "539",
            "pay()": "152",
            "registerAirline(address)": "254",
            "setOperatingStatus(bool)": "20623"
        },
        "internal": {
            "getFlightKey(address,string memory,uint256)": "infinite"
        }
    }
}