{
    "contractName": "FlightSuretyApp",
    "abi": [
        {
            "constant": false,
            "inputs": [],
            "name": "registerOracle",
            "outputs": [],
            "payable": true,
            "stateMutability": "payable",
            "type": "function"
        },
        {
            "constant": false,
            "inputs": [
                {
                    "name": "airline",
                    "type": "address"
                },
                {
                    "name": "flight",
                    "type": "string"
                },
                {
                    "name": "timestamp",
                    "type": "uint256"
                }
            ],
            "name": "registerFlight",
            "outputs": [],
            "payable": false,
            "stateMutability": "nonpayable",
            "type": "function"
        },
        {
            "constant": true,
            "inputs": [],
            "name": "getMyIndexes",
            "outputs": [
                {
                    "name": "",
                    "type": "uint8[3]"
                }
            ],
            "payable": false,
            "stateMutability": "view",
            "type": "function"
        },
        {
            "constant": true,
            "inputs": [],
            "name": "REGISTRATION_FEE",
            "outputs": [
                {
                    "name": "",
                    "type": "uint256"
                }
            ],
            "payable": false,
            "stateMutability": "view",
            "type": "function"
        },
        {
            "constant": false,
            "inputs": [
                {
                    "name": "index",
                    "type": "uint8"
                },
                {
                    "name": "airline",
                    "type": "address"
                },
                {
                    "name": "flight",
                    "type": "string"
                },
                {
                    "name": "timestamp",
                    "type": "uint256"
                },
                {
                    "name": "statusCode",
                    "type": "uint8"
                }
            ],
            "name": "submitOracleResponse",
            "outputs": [],
            "payable": false,
            "stateMutability": "nonpayable",
            "type": "function"
        },
        {
            "constant": true,
            "inputs": [],
            "name": "isOperational",
            "outputs": [
                {
                    "name": "",
                    "type": "bool"
                }
            ],
            "payable": false,
            "stateMutability": "view",
            "type": "function"
        },
        {
            "constant": false,
            "inputs": [
                {
                    "name": "airline",
                    "type": "address"
                },
                {
                    "name": "name",
                    "type": "string"
                }
            ],
            "name": "registerAirline",
            "outputs": [
                {
                    "name": "",
                    "type": "bool"
                }
            ],
            "payable": false,
            "stateMutability": "nonpayable",
            "type": "function"
        },
        {
            "constant": false,
            "inputs": [
                {
                    "name": "airline",
                    "type": "address"
                },
                {
                    "name": "flight",
                    "type": "string"
                },
                {
                    "name": "timestamp",
                    "type": "uint256"
                }
            ],
            "name": "fetchFlightStatus",
            "outputs": [],
            "payable": false,
            "stateMutability": "nonpayable",
            "type": "function"
        },
        {
            "inputs": [],
            "payable": false,
            "stateMutability": "nonpayable",
            "type": "constructor"
        },
        {
            "anonymous": false,
            "inputs": [
                {
                    "indexed": true,
                    "name": "airline",
                    "type": "address"
                }
            ],
            "name": "AirlineRegisteredWithoutVotes",
            "type": "event"
        },
        {
            "anonymous": false,
            "inputs": [
                {
                    "indexed": true,
                    "name": "airline",
                    "type": "address"
                },
                {
                    "indexed": false,
                    "name": "votes",
                    "type": "uint256"
                }
            ],
            "name": "AirlineRegisteredWithVotes",
            "type": "event"
        },
        {
            "anonymous": false,
            "inputs": [
                {
                    "indexed": true,
                    "name": "airlineVoting",
                    "type": "address"
                },
                {
                    "indexed": true,
                    "name": "airlineVoted",
                    "type": "address"
                }
            ],
            "name": "AirlineVoted",
            "type": "event"
        },
        {
            "anonymous": false,
            "inputs": [
                {
                    "indexed": true,
                    "name": "airline",
                    "type": "address"
                },
                {
                    "indexed": false,
                    "name": "value",
                    "type": "uint256"
                }
            ],
            "name": "AirlineFullyFunded",
            "type": "event"
        },
        {
            "anonymous": false,
            "inputs": [
                {
                    "indexed": true,
                    "name": "airline",
                    "type": "address"
                },
                {
                    "indexed": false,
                    "name": "flightNumber",
                    "type": "string"
                },
                {
                    "indexed": false,
                    "name": "timeStamp",
                    "type": "string"
                }
            ],
            "name": "FlightRegistered",
            "type": "event"
        },
        {
            "anonymous": false,
            "inputs": [
                {
                    "indexed": true,
                    "name": "passenger",
                    "type": "address"
                },
                {
                    "indexed": false,
                    "name": "flightNumber",
                    "type": "bytes32"
                },
                {
                    "indexed": false,
                    "name": "amount",
                    "type": "uint256"
                }
            ],
            "name": "InsurancePurchased",
            "type": "event"
        },
        {
            "anonymous": false,
            "inputs": [
                {
                    "indexed": false,
                    "name": "airline",
                    "type": "address"
                },
                {
                    "indexed": false,
                    "name": "flight",
                    "type": "string"
                },
                {
                    "indexed": false,
                    "name": "timestamp",
                    "type": "uint256"
                },
                {
                    "indexed": false,
                    "name": "status",
                    "type": "uint8"
                }
            ],
            "name": "FlightStatusInfo",
            "type": "event"
        },
        {
            "anonymous": false,
            "inputs": [
                {
                    "indexed": false,
                    "name": "airline",
                    "type": "address"
                },
                {
                    "indexed": false,
                    "name": "flight",
                    "type": "string"
                },
                {
                    "indexed": false,
                    "name": "timestamp",
                    "type": "uint256"
                },
                {
                    "indexed": false,
                    "name": "status",
                    "type": "uint8"
                }
            ],
            "name": "OracleReport",
            "type": "event"
        },
        {
            "anonymous": false,
            "inputs": [
                {
                    "indexed": false,
                    "name": "index",
                    "type": "uint8"
                },
                {
                    "indexed": false,
                    "name": "airline",
                    "type": "address"
                },
                {
                    "indexed": false,
                    "name": "flight",
                    "type": "string"
                },
                {
                    "indexed": false,
                    "name": "timestamp",
                    "type": "uint256"
                }
            ],
            "name": "OracleRequest",
            "type": "event"
        }
    ],
    "bytecode": "6080604052600280546001608060020a03191690556006805460ff1916905534801561002a57600080fd5b506001805433600160a060020a0319909116178155600280546001608060020a031981166001608060020a0391821690930116919091179055611bdb806100726000396000f3006080604052600436106100745763ffffffff60e060020a600035041663339d259081146100795780633cc0be9c146100835780635f1cc0e6146100b357806364b4f75114610100578063c10f270014610127578063cd905dff14610169578063ee38a74914610192578063f83f11c0146101bf575b600080fd5b6100816101ef565b005b34801561008f57600080fd5b5061008160048035600160a060020a0316906024803590810191013560443561040e565b3480156100bf57600080fd5b506100c861078f565b6040518082606080838360005b838110156100ed5781810151838201526020016100d5565b5050505090500191505060405180910390f35b34801561010c57600080fd5b50610115610861565b60408051918252519081900360200190f35b34801561013357600080fd5b5061008160ff60048035821691600160a060020a036024803591909116926044359182019291013590606435906084351661086d565b34801561017557600080fd5b5061017e610d63565b604080519115158252519081900360200190f35b34801561019e57600080fd5b5061017e60048035600160a060020a03169060248035908101910135610de8565b3480156101cb57600080fd5b5061008160048035600160a060020a031690602480359081019101356044356113e1565b6101f7611abf565b6000809054906101000a9004600160a060020a0316600160a060020a031663cd905dff6040518163ffffffff1660e060020a028152600401602060405180830381600087803b15801561024957600080fd5b505af115801561025d573d6000803e3d6000fd5b505050506040513d602081101561027357600080fd5b505115156102ca576040805160e560020a62461bcd0281526020600482015260256024820152600080516020611b90833981519152604482015260da60020a641a5bdb985b02606482015290519081900360840190fd5b670de0b6b3a764000034101561032a576040805160e560020a62461bcd02815260206004820152601c60248201527f526567697374726174696f6e2066656520697320726571756972656400000000604482015290519081900360640190fd5b3360009081526007602052604090205460ff16156103b8576040805160e560020a62461bcd02815260206004820152602960248201527f556e61626c6520746f20726567697374657221204f7261636c6520616c72656160448201527f6479206578697374730000000000000000000000000000000000000000000000606482015290519081900360840190fd5b6103c1336116ab565b6040805180820182526001808252602080830185815233600090815260079092529390208251815460ff191690151517815592519394509092610408918301906003611ade565b50505050565b60008060009054906101000a9004600160a060020a0316600160a060020a031663cd905dff6040518163ffffffff1660e060020a028152600401602060405180830381600087803b15801561046257600080fd5b505af1158015610476573d6000803e3d6000fd5b505050506040513d602081101561048c57600080fd5b505115156104e3576040805160e560020a62461bcd0281526020600482015260256024820152600080516020611b90833981519152604482015260da60020a641a5bdb985b02606482015290519081900360840190fd5b60008054604080517f1eeb88580000000000000000000000000000000000000000000000000000000081523360048201529051600160a060020a0390921692631eeb8858926024808401936020939083900390910190829087803b15801561054a57600080fd5b505af115801561055e573d6000803e3d6000fd5b505050506040513d602081101561057457600080fd5b505115156001146105cf576040805160e560020a62461bcd02815260206004820152601960248201527f4169726c696e65206973206e6f74207265676973746572656400000000000000604482015290519081900360640190fd5b60008054604080517f1463ba120000000000000000000000000000000000000000000000000000000081523360048201529051600160a060020a0390921692631463ba12926024808401936020939083900390910190829087803b15801561063657600080fd5b505af115801561064a573d6000803e3d6000fd5b505050506040513d602081101561066057600080fd5b505115156001146106bb576040805160e560020a62461bcd02815260206004820152600d60248201527f46756e64206e6f74207061696400000000000000000000000000000000000000604482015290519081900360640190fd5b6106f78585858080601f016020809104026020016040519081016040528093929190818152602001838380828437508994506117519350505050565b60408051608081018252600180825260006020808401828152848601988952600160a060020a039b8c1660608601908152968352600390915293902091518254935160ff166101000261ff001991151560ff19909516949094171692909217815593519084015551600290920180549290951673ffffffffffffffffffffffffffffffffffffffff1990921691909117909355505050565b610797611abf565b3360009081526007602052604090205460ff161515610800576040805160e560020a62461bcd02815260206004820152601b60248201527f4e6f74207265676973746572656420617320616e206f7261636c650000000000604482015290519081900360640190fd5b3360009081526007602052604080822081516060810192839052926001909101916003918390855b825461010083900a900460ff16815260206001928301818104948501949093039092029101808411610828579050505050505090505b90565b670de0b6b3a764000081565b60008060009054906101000a9004600160a060020a0316600160a060020a031663cd905dff6040518163ffffffff1660e060020a028152600401602060405180830381600087803b1580156108c157600080fd5b505af11580156108d5573d6000803e3d6000fd5b505050506040513d60208110156108eb57600080fd5b50511515610942576040805160e560020a62461bcd0281526020600482015260256024820152600080516020611b90833981519152604482015260da60020a641a5bdb985b02606482015290519081900360840190fd5b3360009081526007602052604090206001015460ff8881169116148061098457503360009081526007602052604090206001015460ff88811661010090920416145b806109ac57503360009081526007602052604090206001015460ff8881166201000090920416145b1515610a28576040805160e560020a62461bcd02815260206004820152602360248201527f496e64657820646f6573206e6f74206d61746368206f7261636c65207265717560448201527f6573740000000000000000000000000000000000000000000000000000000000606482015290519081900360840190fd5b8686868686604051602001808660ff1660ff167f010000000000000000000000000000000000000000000000000000000000000002815260010185600160a060020a0316600160a060020a03166c010000000000000000000000000281526014018484808284378201915050828152602001955050505050506040516020818303038152906040526040518082805190602001908083835b60208310610adf5780518252601f199092019160209182019101610ac0565b51815160209384036101000a6000190180199092169116179052604080519290940182900390912060008181526008909252929020549194505074010000000000000000000000000000000000000000900460ff1615159150610bb49050576040805160e560020a62461bcd02815260206004820152602f60248201527f466c69676874206f722074696d657374616d7020646f206e6f74206d6174636860448201527f206f7261636c6520726571756573740000000000000000000000000000000000606482015290519081900360840190fd5b600081815260086020908152604080832060ff8616808552600191820184528285208054928301815585529383902001805473ffffffffffffffffffffffffffffffffffffffff1916331790558051600160a060020a038a168152908101869052606081019290925260809082018181529082018690527f43c853095c2752648493c88b4baac4d580d2594ffb00c6f1d4242d844514f783918891889188918891889160a0820186868082843760405192018290039850909650505050505050a1600081815260086020908152604080832060ff86168452600101909152902054600311610d5a577fe23f5229de535c091e3b7bec2665f5d698192d3b31393066e8987b7a05076b6c86868686866040518086600160a060020a0316600160a060020a03168152602001806020018481526020018360ff1660ff168152602001828103825286868281815260200192508082843760405192018290039850909650505050505050a1610d5a8686868080601f0160208091040260200160405190810160405280939291908181526020018383808284378201915050505050508585611844565b50505050505050565b60008060009054906101000a9004600160a060020a0316600160a060020a031663cd905dff6040518163ffffffff1660e060020a028152600401602060405180830381600087803b158015610db757600080fd5b505af1158015610dcb573d6000803e3d6000fd5b505050506040513d6020811015610de157600080fd5b5051905090565b60008060009054906101000a9004600160a060020a0316600160a060020a031663cd905dff6040518163ffffffff1660e060020a028152600401602060405180830381600087803b158015610e3c57600080fd5b505af1158015610e50573d6000803e3d6000fd5b505050506040513d6020811015610e6657600080fd5b50511515610ebd576040805160e560020a62461bcd0281526020600482015260256024820152600080516020611b90833981519152604482015260da60020a641a5bdb985b02606482015290519081900360840190fd5b60008054604080517f1eeb88580000000000000000000000000000000000000000000000000000000081523360048201529051600160a060020a0390921692631eeb8858926024808401936020939083900390910190829087803b158015610f2457600080fd5b505af1158015610f38573d6000803e3d6000fd5b505050506040513d6020811015610f4e57600080fd5b50511515600114610fa9576040805160e560020a62461bcd02815260206004820152601960248201527f4169726c696e65206973206e6f74207265676973746572656400000000000000604482015290519081900360640190fd5b60008054604080517f70c9411e000000000000000000000000000000000000000000000000000000008152336004820152600160a060020a0380891660248301529151889492909316926370c9411e92604480840193602093929083900390910190829087803b15801561101c57600080fd5b505af1158015611030573d6000803e3d6000fd5b505050506040513d602081101561104657600080fd5b5051156110c3576040805160e560020a62461bcd02815260206004820152602660248201527f43616e6e6f7420766f746520747769636520666f7220612073696e676c65206160448201527f69726c696e650000000000000000000000000000000000000000000000000000606482015290519081900360840190fd5b60008054604080517f1463ba120000000000000000000000000000000000000000000000000000000081523360048201529051600160a060020a0390921692631463ba12926024808401936020939083900390910190829087803b15801561112a57600080fd5b505af115801561113e573d6000803e3d6000fd5b505050506040513d602081101561115457600080fd5b505115156001146111af576040805160e560020a62461bcd02815260206004820152600d60248201527f46756e64206e6f74207061696400000000000000000000000000000000000000604482015290519081900360640190fd5b60025460046fffffffffffffffffffffffffffffffff90911610156112a957600054604080517fee38a749000000000000000000000000000000000000000000000000000000008152600160a060020a0388811660048301908152602483019384526044830188905293169263ee38a7499289928992899290916064018484808284378201915050945050505050600060405180830381600087803b15801561125757600080fd5b505af115801561126b573d6000803e3d6000fd5b5050600280546fffffffffffffffffffffffffffffffff808216600101166fffffffffffffffffffffffffffffffff19909116179055506113d49050565b600160a060020a038516600090815260056020526040902080546fffffffffffffffffffffffffffffffff19811660016fffffffffffffffffffffffffffffffff9283160182161791829055600254603292908216919081166064021681151561130f57fe5b046fffffffffffffffffffffffffffffffff161015156113cb57600054604080517fee38a749000000000000000000000000000000000000000000000000000000008152600160a060020a0388811660048301908152602483019384526044830188905293169263ee38a7499289928992899290916064018484808284378201915050945050505050600060405180830381600087803b1580156113b257600080fd5b505af11580156113c6573d6000803e3d6000fd5b505050505b600091506113d9565b600191505b509392505050565b60008054604080517fcd905dff00000000000000000000000000000000000000000000000000000000815290518392600160a060020a03169163cd905dff91600480830192602092919082900301818787803b15801561144057600080fd5b505af1158015611454573d6000803e3d6000fd5b505050506040513d602081101561146a57600080fd5b505115156114c1576040805160e560020a62461bcd0281526020600482015260256024820152600080516020611b90833981519152604482015260da60020a641a5bdb985b02606482015290519081900360840190fd5b6114ca336119d1565b91508186868686604051602001808660ff1660ff167f010000000000000000000000000000000000000000000000000000000000000002815260010185600160a060020a0316600160a060020a03166c010000000000000000000000000281526014018484808284378201915050828152602001955050505050506040516020818303038152906040526040518082805190602001908083835b602083106115835780518252601f199092019160209182019101611564565b51815160209384036101000a6000190180199092169116179052604080519290940182900382208285018552338352600183830190815260008281526008845286902093518454915173ffffffffffffffffffffffffffffffffffffffff19909216600160a060020a039182161774ff00000000000000000000000000000000000000001916740100000000000000000000000000000000000000009215159290920291909117909355845160ff8a168152928d16918301919091526060820189905260809382018481529382018a905295507f3ed01f2c3fc24c6b329d931e35b03e390d23497d22b3f90e15b600343e93df1194508693508a928a92508991899160a0820185858082843760405192018290039850909650505050505050a1505050505050565b6116b3611abf565b6116bb611abf565b6116c4836119d1565b60ff1680825260208201525b8051602082015160ff908116911614156116fa576116ed836119d1565b60ff1660208201526116d0565b602081015160ff1660408201525b8051604082015160ff9081169116148061173057506020810151604082015160ff9081169116145b1561174b5761173e836119d1565b60ff166040820152611708565b92915050565b60008383836040516020018084600160a060020a0316600160a060020a03166c0100000000000000000000000002815260140183805190602001908083835b602083106117af5780518252601f199092019160209182019101611790565b51815160209384036101000a60001901801990921691161790529201938452506040805180850381529382019081905283519395509350839290850191508083835b602083106118105780518252601f1990920191602091820191016117f1565b5181516020939093036101000a60001901801990911692169190911790526040519201829003909120979650505050505050565b60008060009054906101000a9004600160a060020a0316600160a060020a031663cd905dff6040518163ffffffff1660e060020a028152600401602060405180830381600087803b15801561189857600080fd5b505af11580156118ac573d6000803e3d6000fd5b505050506040513d60208110156118c257600080fd5b50511515611919576040805160e560020a62461bcd0281526020600482015260256024820152600080516020611b90833981519152604482015260da60020a641a5bdb985b02606482015290519081900360840190fd5b611924858585611751565b905060ff82166014148061193b575060ff82166028145b156119ca57600080548282526004602081905260408084205481517f4a830a92000000000000000000000000000000000000000000000000000000008152600160a060020a03918216938101939093529051921692634a830a929260248084019382900301818387803b1580156119b157600080fd5b505af11580156119c5573d6000803e3d6000fd5b505050505b5050505050565b6006805460ff198116600160ff9283169081019092161790915560408051439290920340602080840191909152600160a060020a0384166c010000000000000000000000000283830152815180840360340181526054909301918290528251600093600a938593859382918401908083835b60208310611a625780518252601f199092019160209182019101611a43565b5181516020939093036101000a6000190180199091169216919091179052604051920182900390912092505050811515611a9857fe5b600654919006915060fa60ff9091161115611ab8576006805460ff191690555b9392505050565b6060604051908101604052806003906020820280388339509192915050565b600183019183908215611b615791602002820160005b83821115611b3257835183826101000a81548160ff021916908360ff1602179055509260200192600101602081600001049283019260010302611af4565b8015611b5f5782816101000a81549060ff0219169055600101602081600001049283019260010302611b32565b505b50611b6d929150611b71565b5090565b61085e91905b80821115611b6d57805460ff19168155600101611b775600436f6e74726163742069732063757272656e746c79206e6f74206f7065726174a165627a7a723058206cbba524be5047a99e28ba924cf81152ed7f392035d92e90ee9c9c7a7065e41a0029",
    "sourcePath": "/Users/buuthongtran/Downloads/FlightSurety/contracts/FlightSuretyApp.sol",
    "compiler": {
        "name": "solc",
        "version": "0.4.25+commit.59dbf8f1"
    },
    "functionHashes": {
        "REGISTRATION_FEE()": "64b4f751",
        "fetchFlightStatus(address,string,uint256)": "f83f11c0",
        "getMyIndexes()": "5f1cc0e6",
        "isOperational()": "cd905dff",
        "registerAirline(address,string)": "ee38a749",
        "registerFlight(address,string,uint256)": "3cc0be9c",
        "registerOracle()": "339d2590",
        "submitOracleResponse(uint8,address,string,uint256,uint8)": "c10f2700"
    },
    "gasEstimates": {
        "creation": {
            "codeDepositCost": "1426200",
            "executionCost": "82684",
            "totalCost": "1508884"
        },
        "external": {
            "REGISTRATION_FEE()": "313",
            "fetchFlightStatus(address,string,uint256)": "infinite",
            "getMyIndexes()": "infinite",
            "isOperational()": "infinite",
            "registerAirline(address,string)": "infinite",
            "registerFlight(address,string,uint256)": "infinite",
            "registerOracle()": "infinite",
            "submitOracleResponse(uint8,address,string,uint256,uint8)": "infinite"
        },
        "internal": {
            "generateIndexes(address)": "infinite",
            "getFlightKey(address,string memory,uint256)": "infinite",
            "getRandomIndex(address)": "infinite",
            "processFlightStatus(address,string memory,uint256,uint8)": "infinite"
        }
    }
}